:020000040000FA
:10000000B81E0020E5610000F7610000F961000002
:1000100000000000000000000000000000000000E0
:10002000000000000000000000000000FB61000074
:100030000000000000000000FD610000FF61000002
:100040000162000001620000016200000162000024
:1000500001620000000000007D7B00004F0E0000E8
:10006000016200000162000001620000550A000008
:1000700001620000016200000162000001620000F4
:10008000016200007D810000016200000162000049
:1000900093810000B97800006579000001620000DA
:1000A000016200000162000000000000000000008A
:1000B0000000000000000000000000000000000040
:1000C00000F002F800F0B1F80CA030C8083824188D
:1000D0002D18A246671EAB4654465D46AC4201D180
:1000E00000F0A3F87E460F3E0FCCB6460126334201
:1000F00000D0FB1AA246AB4633431847B8D10000E4
:10010000D8D100000023002400250026103A01D396
:1001100078C1FBD8520700D330C100D50B607047BF
:1001200010B56E2902D10BF038FB10BD702902D139
:100130000BF091FC10BD662902D10CF025FE10BD1C
:10014000652902D10CF020FE10BD672902D10CF008
:100150001BFE10BD612902D10CF01EFE10BD03680C
:100160001B0A01D380231943692902D10AF054FEE6
:1001700010BD642902D10AF04FFE10BD752902D1CD
:100180000AF04AFE10BD6F2902D10BF00FFC10BD22
:10019000782902D10BF04CFC10BDE92902D10BF0FB
:1001A000ABFB10BDE42902D10BF0A6FB10BDF52975
:1001B00002D10BF0A1FB10BDEF2902D10BF002FC24
:1001C00010BDF82902D10BF041FC10BD0368DB091A
:1001D00001D380231943632902D10BF023FB10BD07
:1001E000732902D10BF026FB10BDE32902D10CF0DC
:1001F00040F810BDF32902D10CF043F810BD0020E7
:1002000010BD1FB5C046C0460CF0AAF8040000207F
:1002100000210CF0C9FC401C6060002000210CF0A3
:10022000ADFCE0601FBD10B510BD0CF071F81146BB
:10023000FFF7E7FF00F031FC0CF094FB03B4FFF78D
:10024000F2FF03BC0CF00CFC401E00BF00BF00BF5F
:1002500000BF00BF00BF00BF00BF00BF00BF00BFA6
:1002600000BFF1D170470000401E00BF00BF00BFBB
:1002700000BF00BF00BF00BF00BF00BF00BF00BF86
:1002800000BFF1D17047000070B505460C46164618
:1002900002E00FCC0FC5103E102EFAD2082E02D36A
:1002A00003CC03C5083E042E07D301CC01C5361F7D
:1002B00003E021782970641C6D1C761EF9D270BD94
:1002C000FE4C2023E36007F086F8BFF34F8FFD4913
:1002D000FB48C860BFF34F8FFEE70A460146FA4865
:1002E000FFF7EEFFF1B596B00321C94310A80172E4
:1002F000F6480224C4603C2168460AF05CFF0121F4
:10030000009468464171018116A80390002712A845
:100310000490684687830897878287843D463C46D9
:100320003E4613A80B9761DF002828D0E848816A71
:10033000456A8CB2032615AFF200284621460AF022
:10034000A5FC0321891B761E76B27854002EF3DAC1
:10035000042010A9119708802004000E21020843F0
:10036000694688870FA80C900021684606F0EEFBCE
:10037000002812D0FF21D7A2B031FFF7A1FF13A8A8
:1003800080194078F20039460AF070FC761C05436B
:100390000C4376B2062EF2DBCCE717B0F0BDF0B519
:1003A00089B0142168460AF006FF002069460870EB
:1003B00001900872C54C0390E0680326502702257F
:1003C000002806D0012805D002282DD0032822D1EC
:1003D00033E0E56005A808F0F6FC002802D0BDA2D5
:1003E000DD211FE06846007E002803D108A80078C0
:1003F000002808D06846057205A803900420FFF77E
:1004000071FFE56000E0E6606846078214214182E2
:10041000012007F071FA684663DF002819D0FF2138
:10042000ACA20831FFF74CFF0520FFF75BFF6846E1
:10043000078228214182E660EAE70520FFF752FFA4
:100440001921890168460182B42141820220E660B7
:10045000DFE709B0F0BD08B5A4480090A44B0B221B
:100460001021002007F0BBFE002804D0FF2199A234
:100470002431FFF725FF08BD10B501F09FFE0028CD
:1004800003D0FF2193A23B312AE09A4A01219A48E6
:1004900007F0F7FE002803D0FF218EA240311FE0B5
:1004A000964A0021964807F0ECFE002803D0FF2171
:1004B00088A2453114E08548924A0021103007F0A7
:1004C000E0FE002803D0FF2182A24A3108E004F0B8
:1004D0002DFD04F028FF002804D0FF217DA24F311C
:1004E000FFF7EEFE10BD70B505788748294606F087
:1004F00048F800280AD0082808D08449884205D046
:100500008349884202D073A2824917E06F4C002DC4
:1005100005D00020A060002004F00FFE70BDA06890
:10052000401CA0600328F6DD04F013FE0228F2D17F
:100530001521608866DF774966A20831FFF7C0FEA3
:1005400010B59AB0402168460AF035FE72A168469F
:1005500005F022FF73A108A805F01EFF73A102A8F1
:1005600005F01AFF6FA106A805F016FF002018A9D4
:10057000087001200007406919A90F38C0B206F0C1
:10058000DEFF04F0F1FE010004A81DD0199A00213D
:1005900010AB545C5C54491CC9B22029F9D31946EC
:1005A00005F0FAFE01200146103108A8017700206D
:1005B000014608A84177684606F0B4F8002805D03F
:1005C00044A25C49FFF77CFE5BA1E9E71AB010BDCD
:1005D0008D2140A28900FFF773FEF8B503884526F8
:1005E000594D5A49F6430022384C192B64D00CDC83
:1005F000574F102B1DD0112B2AD0132B27D1224659
:100600001432002160886FDF0CE01A2B55D0392B93
:1006100001D0552B1BD10A70002004F04EFB132192
:10062000608866DF002812D03A492AA2E139FFF734
:1006300047FE0221E1608088608074DF608873DF9C
:10064000A5804B2101224904386807F061FEF8BDFE
:1006500015460A70002004F030FB0020C043608083
:1006600001F0A9FD012801D101F0A4FC386807F0D0
:10067000B3FE38480178002902D0057001F0B6FDBC
:1006800000F046FE002801D000F0E7FF01F0A7FBD4
:1006900000286AD005F0FAFC002866D005F0FEFCC0
:1006A000002862D0002005F0EDFC002001F09BFB4B
:1006B0000420205EB0424FE06BE077E00005005080
:1006C0000400FA0500ED00E0EFBEADDE0000002002
:1006D000800000102E2E5C536F757263655C737220
:1006E000635C6D61696E2E6300000000370B0000D3
:1006F000400500209D3E00000C010020493E000006
:10070000180100207B160000BC0B00200330000005
:1007100001340000D3030000426169647520496E12
:1007200063000000312E302E30000000647531303F
:1007300030000000030200003031323334353637E8
:100740003839616263646500FF0F00003C010020DE
:100750008C000020B800002007DA05F09FFC02287A
:100760000AD00021072004F0FDFB2078002805D0E6
:10077000257008F0FEFA09E00121F3E708F049FAD4
:10078000002803D0B121F74A890050E708F048FC5F
:1007900009E00A708079002800D058E7E068042852
:1007A00001D10320E060FFF7FAFDF8BD0627C75727
:1007B00005F074FCEC4800680128F6D10420205EA6
:1007C000A84201D1A78009E003210AF037FD4500C6
:1007D000032138460AF032FD2818A08005F056FCA7
:1007E0000028E2D10420205EB042DEDD012005F0C9
:1007F00049FCF8BD10B504460088102802D0112825
:1008000002D004E0032000E0002007F075F8214644
:10081000D64800F064FC204608F08CF9204606F02B
:1008200036FBD2482146183805F0C0FD2046FFF7B8
:10083000D4FE10BD08B5CE48CC490090CD4B502217
:100840009C390D2007F066F8002803D0C54ACA4934
:10085000FFF736FD08BD10B5042804D0C649C14ACB
:100860001431FFF72DFD00F059FD002805D0C348D5
:10087000012101701321408866DF10BD704770B5FB
:10088000BF480168CA070121002A1BD00160840407
:100890006569383D03E0E8B206F03AFE6D1C606918
:1008A0001838A842F7D86569183D07E060690F3825
:1008B000A84202D0E8B206F02BFE6D1C60690E382B
:1008C000A842F3D8AF498020C860FF20913003F0E0
:1008D0006BF8072000F023F970BD0020AA4902221E
:1008E00083005B181A60401C2028F9D3704710B5AC
:1008F000A5490320C861886148618860A2494031E8
:100900008860072000F00BF9062000F008F90520A8
:1009100000F005F9022000F002F9122000F0FFF8C3
:1009200004F009FD00F0BAF9FFF795FD974A14218C
:10093000082007F055FA002803D08A4A8B21FFF7D8
:10094000BFFC04F03CFC00F034FB00F048FB02F07C
:10095000A4F810BD00B587B005F0A4F9FFF78CFD31
:10096000824902204C3907F06FF9002803D0E321B7
:100970007C4A89005BE001F086FE002201231B0710
:1009800059696846133901705969143941708048B2
:100990000190804802906846827008F045FA00286D
:1009A00003D075496F4A613141E0FFF743FF00F022
:1009B000CBF80520FFF796FC00F030F91C216846C3
:1009C0000AF0F9FB05210904019149100020029168
:1009D0000090032269460A73C88101220A740590B7
:1009E0006D480690684606F0F8F9002803D0624981
:1009F0005C4ACB391BE000F03FF9684A0521012031
:100A000006F064FF002803D0E121564A89000EE079
:100A1000002006F071FF59480023614A0421243068
:100A200007F00FF8002804D053494E4A8F31FFF7E2
:100A300047FC04F0CAFB00F028FE01F003FC00288C
:100A400006D0002001F0CFFB02F0F9F807B000BD9E
:100A50000120F7E75349002008605349012048600E
:100A6000524900048860524940110860704710B52F
:100A700000F014F901204E4AC102803A11604E4A3A
:100A80004C4991604C4A082140321160474A0104A8
:100A900051604549086030BF10BDFFF71EFFFFF7EA
:100AA000E6FFFFF724FF00F0D5FA002801D104F09B
:100AB000D3FE04F0A5FCFFF7E2FEFFF74BFF06F0C4
:100AC000E1FA00280DD105F070F801F089FB00284B
:100AD00007D005F0E9F905F041FA05F08AFA03F0CC
:100AE0005BF903F0C4FB03F015FC04F0ABF904F070
:100AF000DFF903F049FB03F03BF8FFF750FC06F089
:100B0000E7FF05F0D9F807F0F5F905F0D9F83DDF72
:100B10000028F8D01849134AA831FFF7D1FB01216A
:100B2000814018488160704710B50021234A08466B
:100B300007F06AF910BD1CB501910090204A082108
:100B4000684607F061F91CBD0EB5112069460872B0
:100B500007221CA102A86CDF002837D0FF21014A20
:100B6000623158E0D406000070000020D40B002051
:100B7000290B0000F507000016030000000000200C
:100B8000000400400005005000070050F003002062
:100B90007D08000057080000D1050000E57700003F
:100BA0006606000040B1004000B0004000B30040C5
:100BB00080E100E0FF0F000000B50040B10C000034
:100BC000C70C000064752D42616E6400092080012D
:100BD00068DF002803D0FF215A4A65311BE000205E
:100BE000FF21009041316A4601901180FF2191312F
:100BF00051809080D18068466ADF002803D0FF21B1
:100C0000504A6F3107E00320C04367DF002804D05B
:100C1000FF214C4A7231FFF753FB0EBD08B500208F
:100C2000011F00906846017001200146203168468E
:100C3000417000200146684681706946424805F0CF
:100C400047FB002803D0FF213E4AC2310FE000F0ED
:100C500048F83F483D4941603E49016001463A48F5
:100C6000243000F0C4FA002803D0364A3A49FFF78E
:100C700027FBFFF765FC08BD35491E2008390880B1
:100C8000887801221043E12210400C30DF2210400E
:100C900088700720C8701020087170472F49012004
:100CA00088612F4900224A60830798604A60704734
:100CB00010B5002904D02BA275210020FFF700FBFE
:100CC00006F03CFE10BD10B50246082905D0FF21F4
:100CD0002FA216310020FFF7F3FA116850688847F9
:100CE00010BD00B585B0142168460AF064FA0021F1
:100CF000684600910171029164210173012001464F
:100D000010316846417301200146103168468173F5
:100D1000002001466846C173012001461031684633
:100D20000174094869460C3005F00CFC002804D019
:100D3000FF21044ADB31FFF7C3FA204800F041F9F4
:100D400005B000BDD4060000B00B0020B51C0000AB
:100D50001C000020EF1D00001202000000050040F2
:100D6000000100402E2E5C6E726635313832325CE6
:100D7000496E636C7564655C626C655C626C655F32
:100D8000737461636B5F68616E646C65722E68007A
:100D90002E2E5C6E726635313832325C496E636C71
:100DA0007564655C6170705F636F6D6D6F6E5C61C3
:100DB00070705F74696D65722E680000E704000052
:100DC000FEB505460826002404F0C3F901283CD0EE
:100DD00028460AF0CDFBAC4D0090A1006958009860
:100DE0000BF03EFF03D9641CE4B2B442F5D3B44225
:100DF00001D30020FEBD002C27D0A34F083F3E5D4D
:100E000030460AF0B5FB019038192038C07F801BAE
:100E10000AF0A6FB0646A0002F5840194038C06BC8
:100E200039460BF049FF31460AF0AEFA044639461E
:100E300000980BF041FF21460AF0A6FA01990BF049
:100E4000C9FE0AF051FBC0B2FEBD6420FEBDF8B57C
:100E50008E4801680027002948D007608C488068C8
:100E60008C4A012151604B21890148438A490AF08B
:100E7000DBF9064604F06DF9884D894C022822D032
:100E80002868002817D0607881006E500621401C29
:100E90000AF0CAF96170002001468A00AA58491C6C
:100EA00010180629F9DB06210AF0BEF9064604F0FF
:100EB0003CF9361A08E0677000208100401C6E5033
:100EC0000628FADBF3E72F60B0B26080FFF778FF07
:100ED00020706268002A09D00121714806F094FF51
:100EE000002803D06FA29121FFF7EAF96848076054
:100EF000F8BD674901200860644A00211160654916
:100F00000860704770B50446FFF7F3FF0A2002F04F
:100F10004BFD5E4D02E00A2002F046FD28680028E5
:100F2000F9D0002028605A4880685A4A012151604F
:100F30004B218901484358490AF076F9208004F092
:100F400008F9022802D020883C38208070BD5C4916
:100F5000012048605B4801680902090A0207114341
:100F600001605949802008607047F1B55448002558
:100F7000456055490126802080310860434C25603A
:100F8000444F7E60FFF7B5FF0A2002F00DFD206898
:100F90000028F9D025603E4880687E604B21890199
:100FA00048433D490AF040F900990880FFF7CFFF18
:100FB000F8BD37494548486034490020086070470B
:100FC00097E710B5364C60606088FFF7F9FE207037
:100FD0006268002A02D001212046904710BD10B55A
:100FE0002F484088002803D12D48801CFFF78AFF36
:100FF000274900200860FFF7AAFF2948344A012149
:10100000083007F03EF9002804D0FF2125A2253141
:10101000FFF756F910BD2F48807C7047014610B588
:101020001F480022806807F073F9002804D0FF21D0
:101030001CA23831FFF744F910BD10B5184880687C
:1010400007F0CAF9002804D0FF2116A24131FFF7AA
:1010500037F910BD70B501200024C003FFF7DEFF93
:101060000F4DE12636016888B04201D3012406E025
:1010700030BF06F03FFF04F0B7F80028F3D1FFF7C8
:10108000DCFF204670BD0000B0CD000000710040C4
:101090000075004000700040FF030000F40B0020CA
:1010A000540000202E2E5C536F757263655C737262
:1010B000635C62645F626174746572792E630000C0
:1010C0000073004004E400E000E100E002080000DA
:1010D000C10F0000BC0B00208B4B07C3704710B53D
:1010E0000B88012B2ED0102B16D00022112B1AD0DA
:1010F000502B10D1891D0B88048AA34202D10C8B7E
:10110000022C17D08288934205D18369002B02D02C
:101110000A8B1A31984710BD89888182C0690028DE
:10112000F9D0804710BD0021C9438182827500F04B
:101130005EFE10BD498B012901D0827510BD0121D1
:10114000817510BD70480268002AFAD08168406835
:10115000904710BD70B500240546601C90B0000794
:10116000000F08A9103008940870601C0007000FD9
:10117000103048708878F9263040801C88701C2117
:1011800001A80AF018F86946087910210843694651
:101190000871029408A8049405940794069028788E
:1011A00008A988710320694688841120009408707A
:1011B00048708878E7213040801C08400126304381
:1011C0006946887014210AA809F0F5FF09A80A9059
:1011D00068460B9069460E8614204C8688862B46FE
:1011E00068880C330AAA01A9A2DF10B070BD30B51F
:1011F000464B0D4604460FCB85B003936B4607C3A1
:101200000020C043A0826868A0612868E0610020D7
:10121000A0752146684652DF002814D1217868461F
:10122000817401210182A21C04A90120A0DF0028F1
:1012300009D129462046FFF78DFF002803D1294612
:10124000204600F01EF805B030BD1FB5837D002B91
:1012500005D01388142B04D9072004B010BD082032
:10126000FBE70023009301930293039384896B4669
:101270001C800391029201219970808A6946A6DF41
:10128000EBE770B58EB005461C21684609F093FF68
:1012900068460178082001436846017000240194E3
:1012A0000394049405940694297808A88170022177
:1012B00068460184601C0107090F103168460794D5
:1012C000017701200146103168464177817FF9207E
:1012D0000140891CE720014001263143684681779F
:1012E000142109A809F067FF08A8099007A80A9027
:1012F000684686851421C485018668882B1D09AA45
:101300006946A2DF0EB070BD0C0C0020D0CD0000ED
:10131000FE4800787047FD4908707047FC48FD4959
:101320000088884201D00120704700207047F7B53F
:1013300084B0049815460C46002804D1FF20F6A17D
:10134000D030FEF7CAFF042C04D0FF20F2A1D13028
:10135000FEF7C3FFED4C2646A0683036002804D0C7
:10136000022804D001280CD00DE0A5600BE0012D6F
:1013700009D1B088012806D104980068A061012035
:101380000FE0022D0CD0002069468881A068022859
:101390000AD0002806D004980568002D4AD151E0F3
:1013A0000220E06007B0F0BDD8481430C1780129B0
:1013B000F8D10288807801282DD00023D349AB20B2
:1013C000383108706846007810250009000128436C
:1013D000DF25284001256B405B01184383069B0EE7
:1013E000684603704B7000274F8050BA8F80C880CA
:1013F00008226846828103AAD148FFF726FF002809
:101400000BD0D049884216D1C049CF4814310222AE
:10141000FFF762FEC6E70123D0E7BC48A76014309F
:10142000C770E0680128BDD1A0690028BAD0E76084
:10143000A56005467BE00020B449A0601431E0605F
:10144000C870AFE78720B4A18000FEF746FF6EE0CA
:10145000AE49082040316A469081012716E068892C
:1014600000289FD02868002803D1ABA1B748FEF719
:1014700034FF6889142801D9142100E001466A4626
:1014800091812989081A29684118022703AAAC48C2
:10149000FFF7DBFE00280ED0AA4988424BD1AA48AC
:1014A00029460122FFF718FE01212A468904606AB5
:1014B00006F02EFF76E7002F39D0012F04D0022F3F
:1014C0000AD0032F33D12AE0B08801282FD1002081
:1014D000B080206460642AE0694668898989401A7E
:1014E0000004000C688122D100273A4611460846C4
:1014F000FFF7F2FDA7600121E5612A468904606AD1
:1015000006F006FFE068022811D180481430C07848
:1015100001280CD10220A0600020E06036E77B4863
:101520001430C178012902D10021A160C170B088B6
:10153000012894D18CE700273A4611460846FFF768
:10154000CBFDA7606968002902D0AF7300208847EF
:10155000E0680228AED1E760A06017E738B50D4615
:10156000040004D1FF206CA1B730FEF7B6FE012DB8
:1015700008D0022D05D10222009404216846FFF70D
:10158000D6FE38BD00946089002803D05F48406AC9
:1015900006F022FF0122F0E770B5040024D05B4D75
:1015A000AB2040352870002068702289100AA8708E
:1015B000EA700020216803F027FE010A29715349CF
:1015C00068714888020AAA71E87122896281A08143
:1015D000401C488028460121103881800460204644
:1015E000FFF7BCFF002070BD072070BD70B504463A
:1015F000807B00281BD06089002809D1E07B03286C
:1016000006D2401CE0732046FFF7C6FF00280ED02C
:1016100000252A4611460846FFF75EFD3B488560D7
:10162000C560A5736168002901D00020884770BD9E
:1016300000210160704710B5002809D0012806D1AB
:10164000334834490088884201D0132166DF10BD39
:1016500000F0B0FC00F03FFE10BD02F04AFB01F0CC
:101660001DFA05F0B6FE012039DFBFF34F8F39496F
:101670003748C860BFF34F8FFEE724490120087048
:1016800023481321008866DF704710B532480021D7
:101690008173C1731D48314A243006F0F2FD0028E1
:1016A00004D0FF211CA22331FEF70AFE17482C4A62
:1016B0000021283006F0E5FD002804D0FF2116A205
:1016C0002631FEF7FDFD1148264A00212C3006F098
:1016D000D8FD002804D0FF210FA22931FEF7F0FD2C
:1016E000002010BD70B5094C0E46E169002961D09B
:1016F000898981425ED1606A06F06EFE0025002E67
:101700003AD0E069C17B032942D32DE0600000207C
:1017100002000020FFFF00002E2E5C536F757263E5
:10172000655C7372635C62645F636F6D6D756E6937
:10173000636174655F70726F746F636F6C2E6300AA
:10174000D40B0020033000005D15000031020000C2
:101750000400FA0500ED00E0E00C0020ED150000AB
:1017600031160000371600002A4611460846FFF7DA
:10177000B3FCA560E56016E02A4611460846FFF76F
:10178000ABFCE06985734168002913D0012010E0AB
:10179000491CC173FFF700FF00280BD02A461146F1
:1017A0000846FFF799FCE06985734168002901D07C
:1017B0000020884770BDF8B5050006D0F84C00271A
:1017C000A07B002803D00420F8BD0720F8BD01202D
:1017D000A073F44EAB20307077702A89100AB07075
:1017E000F2700020296803F00FFD010A31713146C3
:1017F000707140394888020AB271F0716A6862609B
:101800002A6822602A8922812A896281E773A0815D
:10181000401C4880304601211038818004602046F9
:10182000FFF79CFE0020F8BD7047F8B5002406289D
:1018300012D004DC002809D0012804D106E00928D0
:1018400016D00A2828D007242046F8BD002AFBD14C
:10185000002003F07BF8F7E7012AF5D10978D24898
:10186000012902D000210170EEE701210170EFE7AC
:101870000C2AE9D18A78C87812020243487809789C
:10188000000410430D06054304F00FFCA842DBD012
:10189000284604F007FCD7E70A2AD5D1087800903B
:1018A0008878CA7800061204024308794F7A030246
:1018B00048791343184306468879CB7900020343DD
:1018C000087A4D7802021743184602F017F9B74913
:1018D0003846484302F015F930460A21484302F0E1
:1018E00013F9009802F013F9284602F01BF9ABE750
:1018F000FEB500250C46052877D006DC01280BD064
:1019000002282ED0032804D16AE0102867D02028AE
:101910007ED007252846FEBD042A7DD100F01DFE9D
:10192000A178E67809020E436178C07809040E4375
:10193000217809060E43B102C90E884205D0002065
:1019400004F0B0FB002002F00AFC304600F01CFF5F
:1019500000F046FC0028DDD002F0C8F9002876D05F
:10196000D8E70521104609F05FFC002954D1C7B221
:10197000082F00D90827384604F02DFA002628E061
:10198000B0003218A05C0021121900910190537828
:1019900094461A0A1B0610431943624600910190AF
:1019A0009278130C1204114318436246009101907F
:1019B000D278130E1202114318436246009101902F
:1019C0001279304611430091694604F015FA761CED
:1019D000F6B2BE42D4D304F033FA9BE705E019E037
:1019E000002A19D100F053FF94E7042A14D1A078FB
:1019F000E178000208436178090401432078000679
:101A0000084300D1694804F0D6FA04F0DDFA81E712
:101A100020E001E0042A01D009257BE700200090A6
:101A2000E0780090A17809020843009061780904E9
:101A3000084300902178090608430090684604F0A6
:101A400056FA04F05EFA00F07DFF002888D002F01C
:101A5000A3F95FE7012AC0D108780407240F022CFC
:101A6000BBD8204604F016FB002C03D0012004F064
:101A700009FB4FE70020FAE710B5012000F0B3FBA7
:101A8000002004F0F7FA002004F00CFB02F031F91A
:101A900004F0E7FA02F09DF910BD3EB5404A01237B
:101AA000C83A13700023537002249470D3701471D9
:101AB0005071917107206946019300920881684630
:101AC000FFF779FE3EBD3EB5012819D0112816D189
:101AD00033480121C83801700022427012238370FC
:101AE000C2700423037141718171C1710172009050
:101AF00001920920694608816846FFF75CFE3EBDF9
:101B000003F025FA0446012003F01EFAFFF783FADA
:101B1000282807D201210846FFF7BFFF204603F01F
:101B200013FA3EBD00210846FFF7B7FF1D4901200B
:101B3000403908701E4805210022C903006806F0DC
:101B4000E7FB3EBDF7B50D4600280BD0002D09D0B0
:101B5000144A0178403A1369421C002B04D0012B2F
:101B60000CD13CE00720FEBD032908D0062913D084
:101B7000012943D010292ED00A2970D085E0D178D0
:101B800092780902114349BACA058378411DD20DE2
:101B9000184600F065F978E00526841C18E000007E
:101BA000E00C0020A00000203C01002010270000D5
:101BB000100000206078A1780002401887B23946F2
:101BC000204603F093FDE419E41CF019C01C86B212
:101BD000A81BEFD559E0807804F08AF855E0052974
:101BE0002FD006DC012909D002290BD004294CD1C1
:101BF00015E00A2933D0FF2947D134E08078FFF778
:101C000062FF42E0D17892780902114349BACA05CD
:101C10008378411DD20D1846FFF76AFE35E08078C3
:101C2000012804D0022807D003282ED104E0002187
:101C3000052003F097F928E003F069FB00F0BAF9FA
:101C400023E0D17892780902114349BACA05837812
:101C5000411DD20D1846FFF7E8FD16E0FFE780783A
:101C600004F0A3FA11E0012D0FD1C078012804D0AF
:101C7000022805D0032808D10CE00122114601E01A
:101C800001220221032000F094FA02980021016051
:101C90000846FEBD01220321F4E710B59B4A91706E
:101CA00010800120D07002211046FFF757FC002061
:101CB00010BD7047FEB5954C1646143C0F46A06A01
:101CC00006F0DCFB002802D1A06A06F085FB226A40
:101CD00000258F490091002A12D0012A47D0022AFC
:101CE0000DD1787869460871C10608D58006C10F04
:101CF000F879BA790002104340BAFFF7F3FCFEBD51
:101D00003978AB29FBD18248A5800838324639465C
:101D100009F0F2F97E48A6800838418848BA0830B0
:101D2000801B00B2E08000281EDC794E6A46083E27
:101D300070781071C20604D58006C10F2562F08844
:101D4000DAE702202062A580B08840BA2DE0F08852
:101D5000012140BAFFF7A1FF70886C4A41BA0C32EA
:101D60000098FFF7EFFEFEBD012020622FE06848DB
:101D7000A188083840183246394609F0BDF9A088D4
:101D80008019A080E088801B00B2E08000281EDC63
:101D90005F4E6946083E70780871C106CCD40220B7
:101DA0002062A580B088718840BA4ABA009900F0D4
:101DB000A2F80028CBD02562F088002140BAFFF7B6
:101DC0006CFF0021534A084606F01EF8FEBD4F4A3C
:101DD00001210C328904A06A06F09AFAFEBD4B4834
:101DE000143840787047494914394870704770B5C5
:101DF00000252A4628461146FFF76EF9434C143C4D
:101E00002069012800D160702561A5614048A56066
:101E10001838E5608573C573E069002805D08573BF
:101E20004168002901D0002088472562A580E5800F
:101E3000002004F053F9354805804580606A06F0BB
:101E40001DFB002802D1606A06F0C6FAA06A06F0FF
:101E500015FB002802D1A06A06F0BEFA002070BD72
:101E6000F8B52A4C0025143C17460E46012807D029
:101E7000032833D1E06A06F0AFFA202F1ED025E008
:101E8000E06A06F0A9FA202F15D1002E13D0FFF733
:101E9000C2F814280FD3202231461F4809F02CF92C
:101EA0000F2100224904E06A06F032FA00210120E5
:101EB00003F058F812E000F00EFA0FE0002E05D003
:101EC0002021304600F034FA050009D000F080FAF5
:101ED0004B2101224904E06A06F01AFA2846F8BDAF
:101EE00003F0DAFE002801D103F0F7FC00F05BFA02
:101EF00001202061F2E710B50446002003F084F9C8
:101F0000A04201D1002010BD0B2010BD74000020A4
:101F1000F80C0020B31C0000540D002010B504295B
:101F200017D10068012815D0022812D100F058F905
:101F300000280ED003F00DF902280AD100F03BF979
:101F400005281ED006281CD003F04EFD002002F00C
:101F5000FDFC10BD00F02FF9044601280ED000F062
:101F60003FF90028F5D0052C0BD0062C09D00A2CFF
:101F7000EFD100210A2002F0F5FF10BD00F0C1F9F9
:101F800010BD03F052F810BD70B500218F4B904C7E
:101F900001220546CD40ED07ED0F5D5C164602D0EF
:101FA000AE40E66001E0AE40A660491CC9B205291A
:101FB000EFD370BD10B5874CE06806F00DFAFF2036
:101FC000A0600020A0800A20207003F0C2F8022840
:101FD00003D0012003F0B1F810BD0020FFF7D4FFBB
:101FE00010BD70B57B4DA8680C2849D009DC0300F2
:101FF0000AF098FD0C1F2225291F2C30333639405A
:10200000435A122859D007DC0D3803000AF08AFD24
:10201000053B3E414F524C00152857D004DC132895
:102020004ED0142840D14EE0162805D064283BD16C
:102030001CE0664C443C0BE0644C0E3401E0634C05
:102040001834052128E0614C2234FAE75F4C403C0B
:10205000022121E05D4C3C3CFAE75C4C383CF7E760
:102060005A4C343CF4E7594C303CF1E7574C463C71
:10207000012111E0554C183CEAE7544C143CE7E7C9
:10208000524C103CE4E7514C0C3CE1E74F4C083C0F
:10209000DEE74E4CA41D0421002C05D0A8886A88D8
:1020A000904216D3002A14D0FFF784FF70BD474C2E
:1020B000241FCDE7454C2C3CCAE7444C283CC7E7DD
:1020C000424C243CC4E7414C203CC1E73F4C1C3C03
:1020D000BEE709F0A9F84800205AFFF755FFA88885
:1020E000401CA88070BDF8B507463A4C0020A0807F
:1020F000A76015460E46E06806F0C0F9002802D138
:10210000E06806F069F9B10070047118000C89B23A
:102110000C2F22D009DC3B000AF004FD0C1F21210A
:10212000211F1F1F1F1F1F1F1F24122F15D007DC69
:102130000D3F3B000AF0F6FC0511112211111600AB
:10214000152F0AD004DC132F07D0142F0AD104E076
:10215000162F04D0642F05D103E0608002E0618077
:1021600000E06680A068FF2807D00020FFF739FF55
:1021700000222946E06806F0CBF8F8BDB000ECE795
:10218000F8B51D4616460F46044602F0E2FF022847
:1021900001D0042C0BD80F4801788C4207D804706A
:1021A0002A4631463846FFF79EFF0120F8BD002041
:1021B000F8BD094BE4E7074800787047054810B5BB
:1021C000064A01210C3006F05CF810BD26CE000056
:1021D00000050050A800002033330000E31F00007A
:1021E0008648407870478549487070471CB5002282
:1021F0001146104605F02EF969460124088024078F
:10220000606901A91238C0B205F099F9002818D107
:1022100060691238C0B205F07BF90198082278494C
:10222000001D05F063F900280BD16A46202174488F
:1022300005F010F96946088072494118019805F0C7
:1022400050F91CBD1CB500221146104605F002F9DC
:102250006946088001200007406901A91238C0B210
:1022600005F06DF9002815D10199674B0868020C3B
:102270009A4210D184B22022091D6148FEF704F869
:102280006A4620215E4805F0E5F869460880A042CC
:1022900003D100201CBD401C01D00B201CBD05201B
:1022A0001CBD0EB559480321017000214170022266
:1022B0008270C1700122027141710191009006206B
:1022C000694608816846FFF776FA0EBD504813212B
:1022D000008866DF70470EB54C480321017000216D
:1022E000417002228270C17001210171417149491E
:1022F000019100900620694608816846FFF75BFA65
:102300000EBD10B54448006806F066F83B4801244D
:10231000047001F09CFFFFF74DFEFFF7C2FF0021A4
:10232000022002F01FFE3D480460FFF7A5FB10BD30
:10233000FEB50D46060001D0202D01D00720FEBDC0
:1023400000221146104605F085F8694608800120F4
:102350000007406901A91238C0B205F0F0F8040086
:10236000EDD10198284A0368190C91420AD19FB215
:102370006A462021001D05F06DF869460880B842C4
:1023800002D105E05B1C01D00B20FEBD0520FEBD87
:1023900001992A46091D304608F038FE002800D071
:1023A0000B242046FEBD0EB5184803210170002104
:1023B000417004228270C170012202714171019149
:1023C00000900620694608816846FFF7F4F90EBDC3
:1023D0000EB50E4803210170002141700422827065
:1023E000C17001220271427101910090062069467C
:1023F00008816846FFF7DFF90EBD0000B800002035
:10240000540D00200000DE45DE450000180C0020C1
:1024100002000020CD2200008C000020700000206F
:1024200002461F20012907D0062901D9491EC9B239
:10243000C90700D01E2070471C32D0B27047F8B5D3
:102440000A460446FE49104608F0EEFE0D460646D2
:102450003C21284608F0E8FE2171E12109012846C7
:1024600008F0E2FE054608463C2108F0DDFE6071FA
:10247000A5717D200001B5B220800FE0002F26D08D
:102480006421304608F0D0FE002901D0B0071ED0EC
:10249000FF206E30281A761C85B226802088FF2106
:1024A0000646913108F0C0FE0F0013D0642130467B
:1024B00008F0BAFE002901D0B0070BD0FF206E3023
:1024C000A842DBD90020FF27A07091371DE0FF2034
:1024D0006F30DFE7FF206F30F2E72088394606468D
:1024E00008F0A2FE002927D06421304608F09CFEA7
:1024F000002901D0B0071FD00020A178FFF790FF7E
:10250000281A85B2A078401CA0702088394606465B
:1025100008F08AFE002911D06421304608F084FEBC
:10252000002901D0B00709D00020A178FFF778FF7B
:10253000A842D2D9E570F8BD0120DEE70120F4E71A
:1025400010B5BF4908F070FE072108F06DFE481D68
:10255000072108F069FE084610BD10B5B948C168EA
:102560001030FFF76CFFB74810308178491C81703C
:10257000C178491CC17010BDF8B5FFF7EEFFB14C32
:102580000546207800280CD0401E2070E068626864
:102590000146B4398A4204D160600021062002F06D
:1025A000E1FC00264CE0304603F01EFC0068A979EF
:1025B000C001C00E884241D1304603F015FC0068CE
:1025C00069790003800E884238D1E068FFF7B8FFD0
:1025D0000746304603F008FC00780121B940084066
:1025E000400623D1304603F0FFFB0068E978800005
:1025F000C00E884222D1304603F0F6FB0168007914
:10260000890880070843A978000F884216D1304610
:1026100003F0EAFB01680079090A000608437D21FE
:10262000800E090140182988884207D1E06860605F
:102630000021062002F096FC00202070761CF6B2E5
:1026400003F0C6FBB042AED8F8BD10B57D4CE068D3
:10265000401CE06003F034FB3C21E06808F0E4FD3E
:10266000002904D01E2901D1FEF743FC10BDFEF75E
:1026700040FC01F03BFB002802D0002001F029FDC6
:10268000FFF77AFF10BD10B56E487D2109011030AB
:10269000018000218170C170817141710171694CAB
:1026A000694AE1600121083805F0EBFD002803D0FC
:1026B00066A2CC21FDF704FE01210022C903A06817
:1026C00005F026FE002803D060A2CE21FDF7F8FD1C
:1026D00010BDF8B5054681060005800E3C2250432A
:1026E000890E4118E803E122C00E12015043401840
:1026F00000907D20AE0E00013018FF210027044617
:10270000913108F091FD002915D02046642108F090
:102710008BFD002901D0B0070DD00023A802484945
:10272000C00E484300994018454949424418A80141
:10273000050F6D1E09E00123F0E7F9B21846FFF717
:102740006FFE3F49484304197F1CBD42F5D8002560
:1027500014E07D200001FF2128189131074608F080
:1027600063FD00290ED06421384608F05DFD002984
:1027700001D0A80706D03E4824186D1CAE42E8D808
:102780002046F8BD3B48F7E7F8B505468106000549
:10279000800E3C225043890E4118E803E122C00E0E
:1027A00012015043401800907D20AE0E00013018F9
:1027B000FF2100270446913108F036FD002915D08D
:1027C0002046642108F030FD002901D0B0070DD06B
:1027D0000023A8021A49C00E48430099401818491E
:1027E00049424418A801050F6D1E09E00123F0E7D6
:1027F000F9B21846FFF714FE1149484304197F1C2B
:10280000BD42F5D8002514E07D200001FF212818E5
:102810009131074608F008FD002936D0642138467A
:1028200008F002FD002901D0A8072ED01048241876
:102830006D1CAE42E8D8034DEC60A8681CE00000B7
:1028400080510100BC0000204B2600002E2E5C535E
:102850006F757263655C7372635C62645F77616CF1
:102860006C5F636C6F636B5F74696D65722E630080
:102870008033E1010085E20105F0AEFD0121002277
:10288000C903A86805F044FDF8BD3448CFE7FEB59C
:10289000334D0220287000266E700420A870EE7060
:1028A00003F096FA81004018287100242CE020469D
:1028B00003F09AFAA100611800794F197871204647
:1028C00003F092FA014600680979000E09020843F4
:1028D000B871204603F088FA014600680979000CB7
:1028E00009040843F871204603F07EFA0146008887
:1028F0000979000A090608433872204603F074FA81
:102900000078641C7872E4B203F062FAA042CED878
:102910000196009528796946401D08816846FEF7B2
:102920004AFFFEBD0F48C068704710B50D4CE0600F
:10293000A06805F051FD01210022C903A06805F03F
:10294000E7FC10BD10B5FFF708FE00887D210901E6
:10295000884201D1002010BD012010BD0085E20198
:10296000180C0020BC000020002208B511461046BB
:1029700001F028F800287DD0002001F08AF869468F
:102980000F2000F0A7F9002803D1CAA1B620FDF757
:10299000A4FC68460078332803D0C6A1B720FDF711
:1029A0009CFC0021202000F0ABF9002803D1C1A13C
:1029B000B920FDF792FC0021212000F0A1F90028A8
:1029C00003D1BCA1BA20FDF788FC0021222000F031
:1029D00097F9002803D1B7A1BB20FDF77EFC0021A9
:1029E000232000F08DF9002803D1B2A1BC20FDF70F
:1029F00074FC0021242000F083F9002803D1ADA14C
:102A0000BD20FDF76AFC0021252000F079F900289F
:102A100003D1A8A1BE20FDF760FC042000F083FDD7
:102A2000002803D1A3A1BF20FDF757FC072000F029
:102A3000C1FA002803D19FA1C220FDF74EFC02205D
:102A400000F06CFA002803D19AA1C320FDF745FCE1
:102A5000052000F0C9F9002803D196A1C520FDF793
:102A60003CFC012000F0BEFA012000F0D3FA00285F
:102A700005D100E010E08FA1C720FDF72EFC022059
:102A800000F051FD002000F0E3FB002000F0A5FC69
:102A9000002001F013F8012008BD65E710B5002003
:102AA00000F0F7FF00F062FC002804D1FF2081A1B4
:102AB0000C30FDF712FC0021202000F021F9002845
:102AC00004D1FF207BA10D30FDF707FC0021212060
:102AD00000F016F9002804D1FF2076A10E30FDF792
:102AE000FCFB0021222000F00BF9002804D1FF207C
:102AF00070A10F30FDF7F1FB0021232000F000F959
:102B0000002804D1FF206BA11030FDF7E6FB002167
:102B1000242000F0F5F8002804D1FF2065A1113031
:102B2000FDF7DBFB0021252000F0EAF8002804D1A6
:102B3000FF2060A11230FDF7D0FB042000F0F3FC71
:102B4000002804D1FF205BA11330FDF7C6FB002055
:102B500000F0B4FF10BD70B504460D46002000F033
:102B600098FF042C02D0052C17D10AE0202000F099
:102B70006FFB022000F08FFB042000F099FB052082
:102B800009E0202000F064FB032000F084FB0E200D
:102B900000F08EFB1E2000F094FB012D02D13020AE
:102BA00000F06CFB0124002000F088FF204670BD7F
:102BB00010B50446002000F06CFF012000F0ECFB93
:102BC000002C01D0802000E0002000F02FFB00202E
:102BD00000F074FF01210520FFF7BDFF10BD10B507
:102BE0000446002000F055FF002C13D0212000F0F7
:102BF00080FC002000F08AFC002000F005FC002092
:102C000000F01AFC012000F0C7FB402000F0FCFAA5
:102C10002A2003E0002000F0F7FA802000F0DDFB1E
:102C2000002000F04BFF10BD10B5002000F031FF78
:102C3000002000F073F9002000F040FF10BD10B537
:102C4000002000F026FF022000F068F9002000F0CC
:102C500035FF10BD7CB50546002000F01AFF0024AA
:102C60006846047001A9402000F008FE684600F0A4
:102C700032FE68460079012802D12020694608709A
:102C800068460078124E810889006846017006E0A7
:102C900006206043801900F074FD641CE4B26846AD
:102CA00000788442F4D3684600782870002000F051
:102CB00005FF7CBD2E2E5C536F757263655C73726D
:102CC000635C62645F68616C5F6163632E630000D4
:102CD000740D002010B580221043FD4A0C46107080
:102CE0000221FC4BFC4800F0A3FE002803D1FBA10D
:102CF0003920FDF7F2FAF74840782070012010BD26
:102D000010B5FF4C02222270FE4B00221A70F04ACE
:102D1000F04B107051702178EF4800F089FE0028C8
:102D200003D1EEA15220FDF7D8FA012010BD10B555
:102D300001460F20FFF7CEFF002800D0012010BD74
:102D400010B501460720FFF7C5FF002800D001207D
:102D500010BD38B50C46054669460720FFF7BAFF97
:102D6000002811D000200121802D0ED0402D16D03A
:102D7000202D18D0102D1AD0082D1CD0042D1ED0B7
:102D8000022D20D0012D26D038BD6A461278D309F5
:102D9000DB0124E0217000E02070012038BD6B468B
:102DA0001A78402312E06B461A7820230EE06B4617
:102DB0001A7810230AE06B461A78082306E06B465F
:102DC0001A78042302E06B461A7802231A406B46F5
:102DD0001A70E1D0DEE76A461278D307DB0F6A4645
:102DE0001370002BD8D0D5E738B5044669462020AB
:102DF000FFF770FF00280ED0684600782101000719
:102E0000000F0143C9B2684601702020FFF778FF28
:102E1000002800D0012038BD38B5044669461F207F
:102E2000FFF758FF002810D068460078BF210840FF
:102E3000A1010143E0010843C1B2684601701F20AF
:102E4000FFF75EFF002800D0012038BD38B50446EA
:102E500069461F20FFF73EFF00280ED06846007825
:102E6000E1014006400E0143C9B2684601701F20CF
:102E7000FFF746FF002800D0012038BD1CB50446EE
:102E800069460820FFF726FF002833D001A9092052
:102E9000FFF720FF00282DD0694608790978000245
:102EA00008430009208069460A20FFF713FF002825
:102EB00020D001A90B20FFF70DFF00281AD069468A
:102EC00008790978000208430009608069460C20EF
:102ED000FFF700FF00280DD001A90D20FFF7FAFE33
:102EE000002807D0694608790978000208430009DC
:102EF000A08001201CBD1CB5044601A90C20FFF7D1
:102F0000E9FE002809D069460D20FFF7E3FE0028FE
:102F100003D068460078207001201CBD1CB5044613
:102F200069462020FFF7D6FE002819D001A92320EA
:102F3000FFF7D0FE002813D06846017872480A09CE
:102F400005D10278120912010A4369460A70002C61
:102F500007D0F7210823012C14D0022C09D000201F
:102F60001CBD6946097801700807000F69460870A2
:102F700010E0684602780A40027002790A401A435B
:102F8000027107E06A461078084018431070107903
:102F900008401071684601782020FFF7B1FE002834
:102FA000DED0684601792320FFF7AAFE0028D7D09B
:102FB00001201CBD38B5044669462020FFF78AFE73
:102FC00000280ED0684600786107C008C000490F8D
:102FD0000143684601702020FFF792FE002800D0D0
:102FE000012038BD38B5044669462320FFF772FE3C
:102FF00000280ED068460178CF2001402001084308
:10300000C1B2684601702320FFF77AFE002800D085
:10301000012038BD38B5044669462320FFF75AFE23
:1030200000280ED068460078E1014006400E0143BA
:10303000C9B2684601702320FFF762FE002800D065
:10304000012038BD38B5044669462320FFF742FE0B
:1030500000280ED068460178BF200140A001084337
:10306000C1B2684601702320FFF74AFE002800D055
:10307000012038BD38B5044669462320FFF72AFEF3
:1030800000280ED068460178F9200140600008430E
:10309000C1B2684601702320FFF732FE002800D03D
:1030A000012038BD38B5044669462120FFF712FEDD
:1030B00000282DD068460178FB200140A00008437D
:1030C000C1B2684601702120FFF71AFE00281DE0FA
:1030D000D5000020DD000020003000402E2E5C5383
:1030E0006F757263655C7372635C62645F6C697355
:1030F0003364685F6472697665722E630000000055
:10310000E6000020E5000020D400002000D00120CF
:1031100038BD38B5044669462120FFF7DBFD00289D
:103120000DD068460078400840002043C1B2684690
:1031300001702120FFF7E4FD002800D0012038BDF8
:1031400038B5044669462120FFF7C4FD00280ED09B
:1031500068460178FD20014060000843C1B268461E
:1031600001702120FFF7CCFD002800D0012038BDE0
:1031700038B5044669462120FFF7ACFD00280ED083
:1031800068460078A1018006800E0143C9B26846F6
:1031900001702120FFF7B4FD002800D0012038BDC8
:1031A00038B50446032801D9002038BD69462120DE
:1031B000FFF790FD0028F8D068460078CF2108403E
:1031C00021010143C9B2684601702120FFF798FD33
:1031D0000028EAD0012038BD38B5044669462120D0
:1031E000FFF778FD00280ED068460178F7200140EF
:1031F000E0000843C1B2684601702120FFF780FD5E
:10320000002800D0012038BD38B504466946222088
:10321000FFF760FD002808D069460C70E1B222205B
:10322000FFF76EFD002800D0012038BD38B50446F8
:1032300069462520FFF74EFD002808D069460C702E
:10324000E1B22520FFF75CFD002800D0012038BD49
:1032500038B5044669463820FFF73CFD00280CD0FD
:10326000694608788009800120430870C1B238207F
:10327000FFF746FD002800D0012038BD10B57F289B
:1032800001D9002010BD01463A20FFF739FD002882
:10329000F8D0012010BD10B57F2801D9002010BD45
:1032A00001463B20FFF72CFD0028F8D0012010BD7F
:1032B00010B501463C20FFF723FD002800D0012077
:1032C00010BD10B501463D20FFF71AFD002800D0C3
:1032D000012010BD38B5044669463920FFF7FAFCD5
:1032E000002840D0684600784106490E68460170C3
:1032F000480601D4002034E0880619D508070BD50C
:10330000480701D52C202CE0880701D52A2028E089
:10331000C80729D0292024E0480701D5242020E02F
:10332000880701D522201CE0C8071DD0212018E005
:1033300008070BD5480701D51C2012E0880701D5E6
:103340001A200EE0C8070FD019200AE0480701D55F
:10335000142006E0880701D5122002E0C80703D038
:1033600011202070012038BD002038BD08B5694605
:103370002420FFF7AFFC00280DD0684600784106F6
:10338000490E80200143684601702420FFF7B8FCF5
:10339000002800D0012008BD38B504466946242025
:1033A000FFF798FC00280ED068460178F72001400E
:1033B000E0000843C1B2684601702420FFF7A0FC7A
:1033C000002800D0012038BD08B569463120FFF73C
:1033D00081FC002800D0012008BD38B504466946AC
:1033E0003020FFF777FC00280DD06946087840218F
:1033F0000840204369460870C1B23020FFF780FCC6
:10340000002800D0012038BD38B504466946302078
:10341000FFF760FC00280ED068460078A101800606
:10342000800E0143C9B2684601703020FFF768FC86
:10343000002800D0012038BD7CB504466946302004
:10344000FFF748FC002835D001A92420FFF742FCF3
:1034500000282FD0BF214025FB20012C04D0022CB6
:1034600007D0002C10D016E06B461A780A402A4389
:103470000DE06A4613780B402B431370117901401D
:1034800004200143117106E06B461A780A401A7055
:10349000197901401971684601783020FFF730FC36
:1034A000002807D0684601792420FFF729FC00286E
:1034B00000D001207CBD38B5044669463120FFF7B5
:1034C00009FC002814D0694608784006400E0870B0
:1034D00048280BD006DC412808D0422806D04428D2
:1034E00005D103E0502801D0602800D120700120D0
:1034F00038BD10B57F2801D9002010BD014632200B
:10350000FFF7FEFB0028F8D0012010BD10B57F2882
:1035100001D9002010BD01463320FFF7F1FB002840
:10352000F8D0012010BD38B5BF24042809D04025AB
:10353000002823D001283CD0022857D003287BD074
:1035400077E069462E20FFF7C5FB002872D0684659
:103550000078C106C90E684601702E20FFF7D0FB27
:10356000002867D069462420FFF7B4FB002861D00B
:103570006846017821400170242056E069462420E5
:10358000FFF7A8FB002855D0684601782140294361
:1035900001702420FFF7B4FB00284BD069462E2091
:1035A000FFF798FB002845D068460078C106C90E91
:1035B00038E069462420FFF78DFB00283AD06846A2
:1035C000017821402C46214301702420FFF798FB0D
:1035D00000282FD069462E20FFF77CFB002829D039
:1035E000684600782146C006C00E1AE069462420CD
:1035F000FFF770FB00281DD0684601782140294361
:1036000001702420FFF77CFB002813D069462E2090
:10361000FFF760FB00280DD068460078C006C00E9A
:1036200080210143684601702E20FFF769FB0028C6
:1036300000D0012038BDFFE769462420FFF74AFB90
:103640000028F7D0684601782140294301702420E2
:10365000FFF756FB0028EDD069462E20FFF73AFB16
:103660000028E7D068460078C006C00EC021D8E721
:1036700038B5044669462E20FFF72CFB0028D9D028
:1036800068460178DF20014060010843C1B2684606
:1036900001702E20FFF734FB0028CBD00120C9E7B2
:1036A00038B504461F2801D90020C3E769462E20FB
:1036B000FFF710FB0028BDD069460878400940019B
:1036C00020430870C1B22E20FFF71AFB0028B1D0AA
:1036D0000120AFE710B501462720FFF7FBFA0028CD
:1036E00000D0012010BD38B50C460546694627209C
:1036F000FFF7F0FA00289DD000210122102D23D0E1
:1037000008DC012D34D0022D2AD0042D24D0082D20
:1037100006D11DE0202D13D0402D0DD0802D01D0DD
:10372000002087E768460078C309DB0124E02270A7
:1037300000E0217001207DE76B461878402312E0FD
:103740006B46187820230EE06B46187810230AE0A9
:103750006B461878082306E06B461878042302E0CD
:103760006B461878022318406B461870E1D0DEE7EC
:1037700068460078C307DB0F68460370002BD8D07B
:10378000D5E71CB504468349E820087007216B463D
:10379000804A814800F04CF9002803D17F498048D5
:1037A000FCF79BFD684681784278080600141043B8
:1037B000208068460179C2780806001410436080B2
:1037C000684682794179100600140843A0800120E0
:1037D0001CBD10B501463120FFF77CFA002800D04F
:1037E000012010BD38B50C46054669463120FFF76B
:1037F00071FA00280FD000200121402D0CD0202D7F
:1038000013D0102D15D0082D17D0042D19D0022D4E
:103810001BD0012D21D00DE76B461A78402317E00D
:10382000217000E02070012004E76B461A78202305
:103830000EE06B461A7810230AE06B461A780823CC
:1038400006E06B461A78042302E06B461A780223DE
:103850001A406B461A70E5D0E2E76A461278D30741
:10386000DB0F6A461370DDD0DAE710B501462F2072
:10387000FFF730FA002800D0012010BD38B50C4603
:10388000054669462F20FFF725FA002807D00020BB
:103890000121802D04D0402D0CD0202D12D0C9E65E
:1038A0006A461278D309DB0110E0217000E0207035
:1038B0000120BFE66B461A7840231A406B461A7007
:1038C000F5D0F2E76A461278D307DB0F6A46137029
:1038D000002BECD0E9E738B5044669462F20FFF706
:1038E000F9F9002806D069460878C006C00E0870AD
:1038F000207001209EE638B5044669462320FFF774
:10390000E9F900280DD068460078400840002043BF
:10391000C1B2684601702320FFF7F2F9002800D0F9
:10392000012087E610B50120FFF776FA002804D1C0
:103930001B481A49F830FCF7D0FC47212020FFF73C
:10394000DFF9002804D116481449FB30FCF7C5FC08
:1039500000212120FFF7D4F9002803D10F49114895
:10396000FCF7BBFC00212220FFF7CAF9002804D194
:103970000C480A49801CFCF7B0FC08212320FFF703
:10398000BFF9002804D1074804490E30FCF7A5FC14
:10399000012010BDD500002000300040DC300000C8
:1039A000B1050000B106000031B5054C04E0401E31
:1039B00000902046FCF748FC00980028F7D138BD5D
:1039C000E703000070B505252D020124002819D059
:1039D00044480123DB0745196B62002906D0012901
:1039E00020D0022920D0032920D0002115239B01BB
:1039F000002A00D02143C21851610022FF21093161
:103A00000A5070BD394B384804269E600326DE609C
:103A100015261E610123364E9B05B360354E1623D5
:103A20003360D6E70221E1E70421DFE70621DDE785
:103A3000FFB58C460025162401212D4E890596469A
:103A40002B46F16031154718FF3001301AE07246FD
:103A5000D15CF9610322120300E06D1C816800292A
:103A600001D19542F9D3954205D10120A040B06023
:103A7000002004B0F0BD00218160B969039AD154DF
:103A80005B1C9BB26345E2D30120A040B0600120E3
:103A9000EFE70121002805D0124805221202801804
:103AA00001607047144A10481160121F1160124BD8
:103AB000002244331A601A1D1160EEE7002806D078
:103AC00008490522002012028918086070470A4A36
:103AD00002200549103A1061D060074A3032506127
:103AE0009061EEE7004000400030004000350040AB
:103AF00000050050E800002010070050FE49C88073
:103B00007047FD4948617047FB498861704710B5AF
:103B1000F94BFA4C4033596880072140C00A0143F1
:103B2000596010BD10B5F44B782440335968E44314
:103B300000072140400E0143596010BDEE48C08887
:103B40007047ED4840697047EB488069704710B591
:103B5000E94C207800280AD0E06904F03DFC0028F8
:103B600003D0E7A29E21FCF7ABFB0020207010BD24
:103B700010B5E14C207800280CD10022E849E0691A
:103B800004F0C6FB002803D0DDA2AD21FCF798FBB2
:103B90000120207010BD10B5D748028943899A4290
:103BA00001D9114600E01946C1818489A14200D89B
:103BB0002146C181914201D1002010BD994201D11D
:103BC000012010BD022010BDF8B50646006802288D
:103BD00003D0CBA1C620FCF780FB7268002A5BDD16
:103BE000C54CE18820462030002902D143785B1C77
:103BF000437043780125002B00D145705018E080B8
:103C000002F053FA7168401802F04CFAB0680028CC
:103C100002DD6169401860613069002802DDA16938
:103C20004018A061F068002804D0012806D00228BE
:103C30000BD107E02089401C208106E06089401CF0
:103C4000608102E0A089401CA081FFF7A4FFAA4B7D
:103C5000AA4E4033596880073140C00A0143B14839
:103C600000260140E0880005400B0143596002F046
:103C70001CFA074602F09CF9874202D3A07800287C
:103C80000BD002F012FA054602F092F9854200D2FA
:103C9000A670002000F05AFEF8BDA5700021092092
:103CA00001F060F9F5E710B504460068012804D07A
:103CB000FF2093A10230FCF710FB8F492079C870D8
:103CC000204601F04CF8002000F040FE10BD10B579
:103CD00004460068022802D12046FFF775FF2068DD
:103CE000012802D12046FFF7DEFF10BD8248407850
:103CF000704710B580490020487005F0C0FD10BD28
:103D000010B5FEF70FFE00217D227B4CD2000B4642
:103D100006F0CDFF6163206310BDF8B500680102B5
:103D2000CF0D41048E0D41004D0EC40F002D00DC5F
:103D30001925002E00DC4126002F00DCAA27012CCB
:103D400002D0002C00D001246B484078002801D01C
:103D5000FFF7CFFF2B46324639461920009405F075
:103D60005CFD002804D0FF2065A1A430FCF7B5FA63
:103D7000614801214170FFF7C3FF00216A4805F047
:103D80008DFD002804D0FF205DA1AA30FCF7A5FA24
:103D9000FEF755FF0020F8BD574810B52030407899
:103DA000002803D100F08DFF00F0E7FE52482430D8
:103DB0004088002801D100F07FFF5C4800684088FF
:103DC000002801D101F07AFE02F08EF8FFF7A5FF7E
:103DD00010BD10B500F075FF00F06EFF01F06EFE33
:103DE00000F0CBFE44480021C180816141618181A6
:103DF00041810181084602F055F900F007FA00F010
:103E0000E5F9012010BD08B53B48C078032804D06F
:103E10000020FEF7E4FEFFF7ABFE0020FFF739FEBF
:103E20006846FFF7D6FCFFF7A1FA0020FFF746FE31
:103E300008BD08B50020FFF72CFE6846FFF74AFAD8
:103E40000020FFF73BFE08BD38B52B4C00256179FB
:103E500020460079002912D002280DD3FEF7C0F9C0
:103E6000002803D001210B2001F07CF8002230490A
:103E7000A06A04F04DFA00E02571657138BD022892
:103E80000AD0042806D3022000902A4A042168465A
:103E900003F0BAFF257138BD0120F5E7F0B585B014
:103EA000002402A8FEF7D6FE79E02046062148430A
:103EB00021490A5E40180221415ED710CE1004212C
:103EC000415E3846CD10314678437143411828464B
:103ED0006843081801F0ACF907490390886BC96B77
:103EE000019100902A4631463846039B05F009FBB4
:103EF000002826D002A121E0F0000020FFFFE7FF0C
:103F00002E2E5C536F757263655C7372635C6264C2
:103F10005F737465705F636F756E7465722E630096
:103F2000D72300007F00F8FFCF3C0000A001002055
:103F30009A5900001D1F0000740D00209A48FCF7DC
:103F4000CCF99A480A22816BC06B8A1897490023E2
:103F500058418A63C863A0071BD1084641780029ED
:103F600017D0016B406B27230022C91850418F4A9C
:103F700011635063009101902A4631463846039BF5
:103F800005F095FC002804D087488949C01DFCF73E
:103F9000A4F98648641C0169E4B2491C01616846C1
:103FA000007A844281D305B0F0BDF1B57F4E82B076
:103FB000F08835464035009000286DD00A21B06960
:103FC00007F03CF94003400B0704040C686829889B
:103FD000C00889B2C0000F4304437649706907F0F6
:103FE0002DF9390C80B20904084373490C40029939
:103FF0008907C90A0C4371490C4000990905490B0E
:104000000C436C60210E2C462860203C6078C20076
:104010006B480368D2185170627869680368D200EF
:10402000090CD21891706278A9880368D200090A35
:10403000D218D17062780368D2002979D218117130
:104040002A7929681202090E114362780368D200A6
:10405000D21851712A7929681204090C1143627827
:104060000368D200D218917129882A79090A1206A8
:10407000114362780368D200D218D1716278006867
:10408000D2002978101801726078082804D100F055
:1040900075FB002800D160706A686968530D288834
:1040A0000022F280B2617261B2817281C9025B1C2E
:1040B0003281C90A5B05434A1943114082B2C808DC
:1040C000110CC00009047822D243104029606860B6
:1040D000FEBDFEB5FEF741FA0546FFF75CFD06465C
:1040E000FFF70EFEA8790027304C002808D1687928
:1040F000002805D12879002802D101F0D3FFA7704C
:10410000208986420FD9294A782340325168DB43FF
:1041100010680B40C70949063943090F491C0907B4
:10412000490E0B435360E07801280CD12078002819
:1041300009D1616B206B0023019100901A4619464A
:10414000184605F0B4FB68790F2107F06DF80029D7
:1041500002D13046FFF729FF01F05AFCFEBD13499A
:104160008870704711488078704710B50F48017902
:10417000491CC9B20171012905D14171002289038D
:10418000806A04F0C5F810BD10B5642005F0E6F8AB
:1041900000210D4805F009F9002804D0024804491F
:1041A000C230FCF79AF810BD4F020000F00000206A
:1041B000003F000010270000FFFFE7FF7F00F8FF2F
:1041C000480100207F00E0FF6B41000038B501246A
:1041D00024076169206929394143FA48016061690E
:1041E0002269293951434160002000906069694685
:1041F0002938C0B203F0A3F900980068401C04D02D
:1042000060692938C0B203F073FA38BD38B50124AB
:1042100024076169206938394143EA480838016058
:10422000616922693839514341600020009060691A
:1042300069463838C0B203F082F900980068401C23
:1042400004D060693838C0B203F052FA38BD10B5F6
:10425000FFF7DCFFFFF7BAFF01F036FC10BD10B529
:1042600001210907096989B206F0DEFF10BD70B5AA
:10427000D44C012560682D07002802D02068002852
:1042800009D16869296929384843606068692969E2
:104290002938484320606068FFF7E1FF296989B247
:1042A00048436168884217D00846FFF7D8FF29695C
:1042B00089B248436168081A80102C2106F0B4FFC7
:1042C000002909D06869296929384843606068690C
:1042D000296929384843206060680168491C02D177
:1042E0004168491C15D0FFF7BAFFC0B203F010F9BE
:1042F0006068FFF7B4FF296989B248436060FFF73F
:10430000AEFF05462068FFF7AAFF854201D160682D
:10431000206070BD70B5AB4C0125083C60682D076E
:10432000002802D02068002809D168692969383836
:10433000484360606869296938384843206060688C
:10434000FFF78DFF296989B248436168884217D019
:104350000846FFF784FF296989B248436168081A53
:1043600080104C2106F060FF002909D06869296996
:1043700038384843606068692969383848432060A4
:1043800060680168491C02D14168491C15D0FFF7DB
:1043900066FFC0B203F0BCF86068FFF760FF2969F0
:1043A00089B248436060FFF75AFF05462068FFF76F
:1043B00056FF854201D16068206070BD8148016868
:1043C0004068814201D100207047012070477E483B
:1043D0004088002800D00120704770B5794C2068D3
:1043E000FFF73DFF054620685830FFF738FF85424C
:1043F000206801D12C3070BDFFF731FF401C012532
:104400002D0769691A39884206D22068FFF727FF0D
:104410002969401C89B203E02869696980B2293999
:10442000484370BD70B5674C60688430FFF717FF74
:1044300006466068FFF713FF01252D0786425AD014
:1044400060685830FFF70BFF06466068FFF707FF0C
:10445000864250D16068FFF702FF6969401C1A3933
:1044600088422AD26068FFF7FAFE401CC0B203F00F
:104470003FF96068FFF7F3FE2969401C89B24843A1
:104480002168884237D86068FFF7E9FE2969401C37
:1044900089B24843296989B24118206881422AD9E2
:1044A000FFF7DDFE6969401A1B3001D020681BE070
:1044B0002869696980B229391BE068692938C0B266
:1044C00003F016F9286981B26869293841432068E8
:1044D000814210D829696A6989B2293A51432A6907
:1044E00092B28918814206D9FFF7B9FE2969401CAA
:1044F00089B2484320606068FFF7B1FE06466068F5
:104500005830FFF7ACFE8642606801D12C3070BD98
:10451000FFF7A5FE6969401C1A39884206D2606817
:10452000FFF79DFE2969401C89B203E0286969698B
:1045300080B22939484370BD224808380168406874
:10454000814201D100207047012070471F48407808
:1045500000280CD01E4903C9C20C48031949104356
:104560003039C988000D884201D0012070470020F1
:10457000704716484078012801D901207047002073
:10458000704770B50F4C083C2068FFF768FE054681
:1045900020689830FFF763FE8542206801D14C30D7
:1045A00070BDFFF75CFE401C01252D0769692939A4
:1045B00088420FD22068FFF752FE2969401C89B259
:1045C0000CE0000070010020140100201001002008
:1045D000300100202869696980B23839484370BDCC
:1045E00070B5F94C6068E430FFF739FE0646606844
:1045F000FFF735FE01252D0786425AD060689830B6
:10460000FFF72DFE06466068FFF729FE864250D16F
:104610006068FFF724FE6969401C293988422AD264
:104620006068FFF71CFE401CC0B203F061F86068D0
:10463000FFF715FE2969401C89B24843216888426A
:1046400037D86068FFF70BFE2969401C89B24843E0
:10465000296989B24118206881422AD9FFF7FFFDF4
:104660006969401A2A3001D020681BE0286969690D
:1046700080B238391BE068693838C0B203F038F8C6
:10468000286981B26869383841432068814210D86E
:1046900029696A6989B2383A51432A6992B28918FC
:1046A000814206D9FFF7DBFD2969401C89B24843E6
:1046B00020606068FFF7D3FD064660689830FFF71A
:1046C000CEFD8642606801D14C3070BDFFF7C7FD5A
:1046D0006969401C2939884206D26068FFF7BFFD2E
:1046E0002969401C89B203E02869696980B23839B8
:1046F000484370BD70B500281AD0002918D04A78F8
:104700000524D200121D04700025D3050226DB0DFE
:10471000457086701C0AC47003714B881B0A437174
:104720008B7883710B78C37149780172501D70BD0D
:104730000020C04370BD70B500281CD000291AD0DD
:104740004A8805249200121D92B204700025D305F8
:104750000326DB0D457086701C0AC47003710B883C
:104760001B0A43710B7883714B881B0AC3718978CC
:104770000172501D70BD0020C04370BD70B500288F
:1047800002D0082801D9092070BD8F4C8F49283CE0
:10479000A068FFF7AFFFC01CC117890F081880037E
:1047A000894D020C6868A16802F0A0FE002801D0C3
:1047B000012070BDFFF714FF686084490020844A1F
:1047C0004870844B506811881840C008C000002110
:1047D00011605060084670BD10B57B4C283C2079B4
:1047E00000280DD105210022C903E06903F090FDE6
:1047F000002803D078A28049FBF762FD01202071D8
:1048000010BD3EB5724C7D4D20686168C20C4803F6
:104810001043000D5BD0FFF794F9794906F00EFDC7
:10482000216882B2090C090411432160FFF78CF959
:104830000A2106F003FD4003400B030C61680204EB
:104840002088C908C90080B2194310436160206004
:104850005E48AB684278090ED200D2185170427897
:104860006168AB68D200090CD21891704278A188B7
:10487000AB68D200090AD218D1704278AB68D20076
:104880002179D2181171217922680B02110E194376
:104890004278AB68D200D218517122792168120493
:1048A000090C11434278AB68D200D218917121886B
:1048B0002279090A120611434278AB68D200D21855
:1048C000D1714078AA682178C000801801723F49F0
:1048D000A868FFF70FFF4B490191A968009169464D
:1048E00008816846FCF767FF002801D000203EBD24
:1048F00003CCC20C48031043000DE88001203EBDEC
:104900003EB5314C08342068C1780279090251184B
:10491000491D89B22C2908D80278052A05D1427888
:10492000002A02D18278032A03D0FFF756FD2060C7
:1049300008E0344A0090019268460181FCF73BFF91
:10494000002801D000203EBD01203EBDFEB52E480E
:104950000068012866D1294C2078002860D1A06920
:10496000002804D024481CA16238FBF7B6FCE0788C
:104970000526244F0125002848D1FFF71FFD0028F8
:104980000FD1FFF724FD00280BD101F085F9002895
:1049900007D1FFF7D1FD002803D1FFF7EAFD00287A
:1049A00034D009480021083806704170072282700F
:1049B000C17001710090019768460681FCF7FBFE0B
:1049C00000282DD106207FE0680100201001002082
:1049D000300100207F00E0FF2E2E5C536F75726364
:1049E000655C7372635C62645F73796E635F64615C
:1049F00074612E63000000001605000040010020D5
:104A000010270000EB4B000070000020FFF7D6FCE1
:104A1000002808D0FFF774FF002801D0A6611FE02E
:104A2000FFF7DAFEFEBDFFF7D2FC00280FD0FE49EB
:104A3000E068FFF780FE0197E16800916946088110
:104A40006846FCF7B8FE0028EAD104203CE001F0FB
:104A500023F9002806D001F01EF90028E0D0A56156
:104A60002570FEBDFFF768FD002805D000F0FEF8B8
:104A70000028D5D0032027E0FFF77BFD00280AD1CE
:104A800001E0022020E0E9480078002808D0FFF784
:104A90005DFD002804D0FFF7B4FE0028F1D1BFE788
:104AA000E0780028DDD0E24800210670417008223D
:104AB0008270C17001710090019768460681FCF711
:104AC0007AFE0028ACD10720A061C9E710B5D84C08
:104AD0001034002803D0FFF780FC206010BDD448BC
:104AE000216820384269914203D0416100218170E0
:104AF00010BD8178491CC9B281700429EBD210BD68
:104B000010B5FDF72AFD01780322490252038918E6
:104B1000C54A3F24138849046402490CA34319433E
:104B2000FF231180E133994383781B07DB0D194381
:104B30001180C07849094901C006C00E01431180A7
:104B40000020508010BD10B5B94C0834002803D0A7
:104B5000FFF717FD206010BDB548216820380269B5
:104B6000914203D001610021417010BD4178491C80
:104B7000C9B241700429EBD210BD70B5FDF7EDFC50
:104B80000546AC4C00202060606068790F2106F07B
:104B90004BFBA97989004018400500212160606025
:104BA00070BDEAE710B5FDF7D8FCA34AC378518879
:104BB000DB0649094901DB0E1943FF235180E1332C
:104BC000994383781B07DB0D194351800078032339
:104BD00040025B03C0184004400C3F235B02994332
:104BE000084350800020507010BD70B5904C0025D7
:104BF000203C2570012814D0FFF7EEFDA0690228A3
:104C000004D0032804D0052809D105E0E58006E09A
:104C10000020FFF798FF02E00020FFF757FFA56193
:104C200070BDA069030007F07DFF081C05080D1189
:104C300014181B1C00F066FF13E0FFF7B3FFFFF72B
:104C40009CFF0EE00120FFF77EFF0AE0FFF758FF10
:104C500007E00120FFF73AFF03E00120E07000E0E9
:104C6000E5700120A561FFF771FE70BD3EB5704C87
:104C700008342068C178027909025118491D89B2A7
:104C80004C2908D80278052A05D14278002A02D199
:104C90008278022A03D0FFF774FC206008E0674A9C
:104CA0000090019268460181FCF785FD002801D043
:104CB00000203EBD01203EBD22E75D492039C8707D
:104CC000704710B5FDF749FC5B4AC3785188DB0695
:104CD00049094901DB0E1943FF235180E133994310
:104CE00083781B07DB0D19435180007803234002B2
:104CF0005B03C0184004400C3F235B029943084308
:104D000050800020507010BD70B5002802D00828D7
:104D100001D9092070BD464C4349203CE068FFF7AB
:104D20000AFDC01CC117890F081880032546020C14
:104D300030356868E16802F0D9FB002801D0012015
:104D400070BDFFF76FFB686037490020488070BD79
:104D5000374918310A68026049684160704770B588
:104D6000054680683C2106F069FA2F4C06462288E9
:104D70000F235104880ED20580069B05120F98431D
:104D8000920510431F22520489029043890A084366
:104D9000FDF79FFC3C2106F047FA311A2848244AC7
:104DA0004180183269681160AB6853600268090776
:104DB00012091201090F0A4302606188120E491C90
:104DC00089B261808B001A492039CD685B195A710C
:104DD00063880268CD689B00120C5B199A71638826
:104DE0000288CD689B00120A5B19DA716288C96873
:104DF00092000078511808726088082802D3C0B267
:104E0000FFF782FF70BD10B5FEF7C5FEFFF7CDF8C6
:104E100000F09DFE04488078FFF776FF0648407852
:104E2000FFF7ACFC10BD0000140100203C01002085
:104E3000600100203001002010010020EB4B000039
:104E4000380100207CB5002001252D0701906869FC
:104E50003838C4B227E001A9204602F070FB01985F
:104E60000068009068460078FF2802D0052815D118
:104E70000CE068464078FF2810D168468078FF280B
:104E80000CD16846C078FF280BD007E06846407810
:104E9000002803D168468078022802D0204602F01C
:104EA00037FB641CE4B268692938A042D3D87CBDC2
:104EB0007CB5002001252D07019068692938C4B20E
:104EC00027E001A9204602F03AFB01980068009013
:104ED00068460078FF2802D0052815D10CE0684606
:104EE0004078FF2810D168468078FF280CD16846AA
:104EF000C078FF280BD007E068464078002803D12F
:104F000068468078032802D0204602F001FB641C2A
:104F1000E4B268691A38A042D3D87CBD10B50D49F7
:104F2000002008710120FFF711FD7BE7094810B54B
:104F3000094A00211C3003F0A4F9002803D0074AD5
:104F40000749FBF7BDF96DE7024908707047014852
:104F500000787047400100201D4F0000D849000034
:104F60000705000010B5030007F0DCFD0C1C070B63
:104F70001C1C111D2638464A551C002201210846DA
:104F800029E0012200210220FDF713F932E00F226F
:104F90000A210520FDF70DF9002803D00621022083
:104FA00000F08DF910BD0F2210210620FDF701F948
:104FB0000028F7D0062109E0002909D00122114676
:104FC0000720FDF7F6F80028ECD003210120E7E7E1
:104FD0000A2201210720FDF7ECF810BD002902D0BC
:104FE00003220E2101E003220C210820FDF7E1F845
:104FF0000028F2D00121D2E703220F210920F5E792
:1050000000F0A5FC002803D003220E210A20E2E7CD
:1050100000F021F810BD00F09AFC002801D000201B
:1050200000E0012000F007F810BD10B500F06FF9A6
:10503000FCF7C0FF10BD10B5002806D01F4B0122A1
:1050400016210A20FDF79CF810BD01220E210A202E
:10505000FDF7AFF810BD10B501F027F8044600F0D9
:10506000A7FF844226D800F0A3FF044601F01DF8F4
:1050700064214843214606F0D7F8C0B2142802D272
:105080000622112103E0282805D2062212210A2037
:10509000FDF78FF810BD3C2802D206221321F6E757
:1050A000502802D206221421F1E7642802D20622F7
:1050B0001521ECE703220F21E9E70000CD0C0000E9
:1050C00010B50068002802D0012828D12AE0FBF79B
:1050D000A2FF0446142106F0A7F84849401C0A78AC
:1050E000C0B282421BD00870142C02D200220521CB
:1050F00012E0282C02D2002206210DE03C2C02D224
:105100000022072108E0502C02D20022082103E0EF
:10511000642C05D2002209210420FDF74AF810BDB5
:10512000642CFCD100226421F6E734480078810029
:1051300040183C21081AC0B270473049002801D0FD
:10514000002008704868022802D02C48001DB7E7EC
:1051500070472B4801690905C90F08D00021006973
:10516000C004C00F05D0002907D0012070470121DD
:10517000F5E7002901D0002070470220704710B5E4
:105180000B280CD11D4A00231370FFF7E2FF50607B
:10519000022805D019485360001DFFF791FF10BD8C
:1051A000FDF709F80428FAD1FCF704FF10BD00B59B
:1051B0000C2803D1FFF7CDFF1049486000BD032143
:1051C00010480904C1620163704710B5FFF7C1FFC1
:1051D0000A490228486002D0081DFFF771FF03202A
:1051E00008490004C86210BD00B5FFF7B2FF0228ED
:1051F00001D0012000BD002000BD00008001002082
:10520000000500500007005030B5084C08E0034688
:105210000D78491C6B40000A1B06DB0DE35A584011
:105220001346521E92B2002BF1D130BD52CE000077
:10523000024600200121890700E089089142FCD83C
:1052400007E04318934202D8D21A4B0018184008BE
:1052500089080029F5D1704770B53E4C002261885D
:105260002388994205D362602280628000F06CF846
:1052700070BD00680025012803D0022807D06260B5
:105280000EE088073449000F0D58103105E0C807BB
:105290003149400F10390D580831085800280BD0FB
:1052A00000F052F82B4A2946121DA06803F030F88E
:1052B0006088401C608070BD00F041F8F2E7F8B5EE
:1052C000244C07460E460025A06803F085F800F040
:1052D0003BF8002060806760012F0ED0022F10D0B5
:1052E000606000F02CF860881A4A401C6080121D33
:1052F0002946A06803F00CF8F8BDB00020801648DD
:1053000003E070002080144810380568E9E710B504
:10531000104CA06803F060F800F016F80020606000
:105320002080608010BD0B4810B50C4A0021083069
:1053300002F0A7FF10BD0A4903204863704701200F
:105340000849400788607047012006494007C86047
:10535000704700008801002064D00000595200000E
:10536000400700500005005008B5012000074069C3
:1053700069460F38C0B202F0E2F800982030007899
:10538000002801D0002008BD012008BD38B5044622
:105390006846FDF75FFCF848018809122170017822
:1053A000617041880912A1708178E17081880912C9
:1053B00021710079607138BD38B501250024684637
:1053C000FDF748FC6846007801E0641CE4B28442C2
:1053D000FBD9284638BD10B5E849E02008700C20FC
:1053E0008870FF2491342046FEF7DEFAE348E0217E
:1053F000001F01700C2181702046FEF7D5FA10BD08
:1054000038B5FFF7E8FFFFF7AFFF00281FD1FFF720
:10541000D3FF002808D0D94D04240C3DEC60FF20B8
:105420009130FEF7C1FAAC600020012424070090FF
:10543000606969460F38C0B202F081F800980068D0
:10544000401C04D060690F38C0B202F061F838BD6A
:1054500010B500F00CFA10BD70B50125C74C6D07F2
:105460000C3CA560FF20F530FEF79EFAE56070BDAC
:1054700010B5C34C2178002903D0FCF79CF900201B
:10548000207010BD012801D1BD490870704770B56A
:10549000BC4C049D217000216170A270190AE1705A
:1054A0002371002103E06A5C66187271491C9942FD
:1054B000F9DBB54904605B1D4160038170BDF8B53F
:1054C0000178012000070125AD4E07290FD00A29D8
:1054D0000CD1406969460F38C0B202F030F800982C
:1054E00000212030009001F0FCFFB570F8BD40694C
:1054F00008240F38C0B2694602F021F8A3492246B9
:10550000009801F0F3FF7570F8BD08B50A206946F0
:1055100008709B49002088709D4A0121684602F06E
:1055200073FC002803D09BA2E121FAF7C9FE08BD55
:1055300000B5934885B00078002816D001200007F8
:10554000406901A90F38C0B201F0F9FF01980123A9
:105550002030019000900C22062102A8FFF797FF4F
:1055600002A8FFF785FF05B000BD0021914A08465B
:1055700002F04AFC0028F6D086A2F021FAF7A0FE3D
:10558000F1E738B50C4605460720694608707C49A6
:10559000002048707E4A0121684602F035FC002850
:1055A00003D07CA2FA21FAF78BFE0020774903E0B2
:1055B0002A18D2780A54401CA042F9DB38BD00B545
:1055C0006F4885B00178002916D04078002813D0A4
:1055D00001200007406904A90F38C0B201F0AFFFF5
:1055E0000498009020230922062101A8FFF74FFF0D
:1055F00001A8FFF73DFFB6E700216F4A084602F019
:1056000003FC0028AFD0FF2162A20C31FAF758FE4C
:10561000A9E71FB55A4A1278002A0AD00B46009013
:105620000222062101A8FFF732FF01A8FFF720FFA1
:105630001FBD624A02F0E8FB0028F9D0FF2155A205
:105640001931FAF73DFE1FBD00B54D4887B000780F
:1056500000280DD004A8FFF799FE04A806230090A7
:105660000E22194601A8FFF712FF01A8FFF700FF5D
:1056700007B000BD4248C178002901D10121C170A5
:10568000704710B53E490020C8704D4A014602F0EF
:10569000BBFB002804D0FF213EA23431FAF710FEF4
:1056A00010BD00B5364885B00078002811D04548B7
:1056B000694600880223020A0A74487404A800900C
:1056C0000422062101A8FFF7E2FE01A8FFF7D0FEA1
:1056D00049E700213C4A084602F096FB0028F7D033
:1056E000FF212CA24431FAF7EBFD3CE770B50446EC
:1056F00000780D46102803D02149C978002923D00D
:10570000030007F00FFA12210A21812122252F70B0
:10571000212865211521217B7E21284A2946E01C6C
:1057200002F072FB00280FD0FF211AA2503109E0CD
:105730000021264A084602F067FB002804D0FF211A
:1057400014A25431FAF7BCFD70BDFFF744FE70BDE2
:10575000FFF782FE70BDFFF707FE0028FAD1FFF7C2
:10576000D4FE70BDFFF700FE0028FAD129B2204612
:10577000FFF707FF70BD0000740D00200C050050FE
:1057800094010020180C002085540000B40E002065
:10579000BF5400002E2E5C536F757263655C73728C
:1057A000635C62645F666163746F72795F74657372
:1057B000742E630031550000BF55000013560000E1
:1057C0005154000056000020A35600004956000026
:1057D0000021134A084602F017FB0028CAD0FF2117
:1057E000104A6631AEE700210F4A084602F00CFB72
:1057F0000028BFD0FF210B4A6A31A3E7FFF73AFF29
:1058000070BDFFF73EFF70BD0021084A084602F058
:10581000FBFA0028F7D0FF21024A743192E700001A
:105820003155000094570000BF550000A3560000FA
:1058300010B5032012490004C8621249C003486031
:1058400011484024046030BFFFF7CEFC0028FAD096
:105850000D488030046010BD10B5032008490004D5
:10586000C862FDF7E1F909490120086010BD10B5D3
:10587000032003490004C862FDF7D6F931DF10BDEB
:10588000000700500063004000E100E00005004018
:10589000FC4801460A8B8283498BC1831430F94945
:1058A0000068203108607047F64820307047F5489E
:1058B0001C30704710B5F349052388684968408853
:1058C00000248000001D80B20B70C2054C70D20D08
:1058D0008B70130ACB700A7110BDEA4810B52030E6
:1058E000006801072FD0E74914310860E5480246F7
:1058F000938B0383D28B428383685A88521C92B263
:105900005A800B68446892001B0E12195371836809
:105910000A685B8844689B00120C1B199A718368A3
:105920000A885B8844689B00120A1B19DA71826836
:10593000406852880978920010180172FFF7BAFF88
:105940000020FFF703F810BDCE4908707047CD481E
:105950000078704710B5CB4C0F23E060A0689B0522
:1059600001884A04900EC9058006090F98438905ED
:1059700008431F21490488439102890A0843FCF720
:10598000A8FE3C2105F050FC2178012251402170F5
:10599000A26853885B1C5380A3891B1A20461430CD
:1059A000438003681B091B010B430360190E5288D7
:1059B00063689200D2185171A268016852886368C6
:1059C0009200090CD2189171A2680188528863680C
:1059D0009200090AD218D171A168626849880078DA
:1059E00089008918087210BD10B5A64881684988D9
:1059F00014290CD80178012041400820FFF7B2FAA1
:105A0000FCF790FF3C2105F00FFCFFF7A3FF10BD52
:105A10007CB59C4C207800280CD0FCF783FF3C21FF
:105A200005F002FCE168401A2D210901884202DBE1
:105A3000FFF7DAFF7CBDF028FCDB6846FFF788F94A
:105A400000980025032815D12069002802D100F014
:105A50002CFB206100F029FB2169C831884207D85E
:105A6000FCF760FF0199401A4B21C9008842E1DD33
:105A7000FFF7BAFF25617CBD10B5FCF76EFD01781C
:105A800003224902520389184A047E493F24896847
:105A900064020B88520CA3431A43FF230A80E133AC
:105AA0009A4383781B07DB0D1A430A80C07852099A
:105AB0005201C006C00E02430A8010BD7148002189
:105AC000806801804180D7E738B5FFF7F7FF6D495F
:105AD00000201431086014390870C860086101247E
